:030000000202A455
:0C02A400787FE4F6D8FD7581470202EB7C
:0605FB0047414D494E4747
:1004E8000A17000000000000000000000A210000B8
:1004F8000000000000000000082B01020408102082
:0C0508004080080E7FBFDFEFF7FBFDFE18
:10037D00AF0AEFD39400401B74162FF8E6FE7417E6
:10038D002FF8A60674202FF8E6FE74212FF8A60686
:10039D001F80DFE51725332408FF75F00812011CB7
:1003AD0085F017E52125342408FF75F00812011C8E
:0303BD0085F021A7
:0103C000221A
:10048300750A01750B01E4F50D750C01AF2B120410
:1004930005AF0E1206011203307C007D0212017DAE
:1004A300AF05EF14600A04700D753301E4F53422CF
:0604B300E4F5337534018D
:0104B9002220
:1003C100E4FFEF703E1203307C007D0812017D8D49
:1003D100081203307C007D0812017D8D097F01E444
:1003E100F53CE53CC3950A50D97417253CF8E6B5B0
:1003F100080D7421253CF8E6B50904E4FF80C30526
:030401003C80DF5D
:0104040022D5
:10044500E4F53CE53CC3950A50207417253CF8E6D5
:10045500242BF8E6FF1204057421253CF8E6240E4A
:10046500F8E6FF120601053C80D9742B2508F8E64D
:0E047500FF120405740E2509F8E6FF020601C9
:1004BA007F01EFC3950A501674172FF8E6B5170B8C
:1004CA0074212FF8E6B52103E4F50C0F80E4E50862
:0D04DA00B5170AE509B52105050A1203C191
:0104E70022F2
:10020800E4F53578367C00FD7BFF7A0579FBFE7FC7
:10021800061200F61205C91204837FFA7E00120541
:10022800B51203C11205C97B007A0079367D017FBA
:1002380001120541E50C605C12044512037D1204AD
:10024800451204BA120445C3740B950BFFE49400DD
:10025800FE7C007D3212016B120003859916E516AB
:10026800B43408E4F5337534018022E516B4330854
:10027800E4F5337534FF8015E516B432057533FFA0
:100288008008E516B43106753301E4F534E50A143F
:0C029800F50D80A0750A011205C98088D0
:020405008F3D29
:10040700E4F53EF53EE53DC4131313540124FF9272
:10041700B4E53D25E0F53DC2B67F017E001205DD5E
:10042700D2B67F017E001205DD053EE53EC3940886
:0D04370040D3C2B57F017E001205DDD2B5B5
:010444002295
:030601008F8022C5
:0B05DD00EF1FAC0670011E4C70F622F0
:10000300E4FDFCC3ED9FEC9E5015E4FBFA0BBB0033
:0F001300010AEB646E4A70F50DBD00010C80E42C
:0100220022BB
:1005B5004389207598507587808F8D8F8BD2ACD2EB
:0405C500AFD28E2201
:030023000205E8EB
:0A05E800C2988599423099FDC2992E
:0105F20032D6
:0805F3008F993099FDC2992295
:100515008F4720B2127F0A7E0012000320B21C759D
:100525004701C2A2D2A32220B3117F0A7E00120086
:0C0535000320B307E4F547D2A2C2A322C2
:10058500C2A6C2A58F80D2A77F017E00120003C23A
:08059500A77F017E00020003B4
:10059D00D2A6C2A58F80D2A77F017E00120003C212
:0805AD00A77F017E000200039C
:100567008F408D41E540B40105E541148009E54020
:0E057700B4020AE541243F4480FF12058522AC
:1005C9007F381205857F0C1205857F061205857F08
:0405D9000102058591
:060541008B3C8A3D893E5F
:10054700120567E4F53FAB3CAA3DA93E853F82759E
:0F055700830012013EFF600712059D053F80E7FC
:010566002272
:1002B000020208E493A3F8E493A34003F68001F25A
:1002C00008DFF48029E493A3F85407240CC8C3334F
:1002D000C4540F4420C8834004F456800146F6DF1E
:1002E000E4800B01020408102040809004E8E47EC2
:1002F000019360BCA3FF543F30E509541FFEE49313
:10030000A360010ECF54C025E060A840B8E493A3D9
:10031000FAE493A3F8E493A3C8C582C8CAC583CA04
:10032000F0A3C8C582C8CAC583CADFE9DEE780BEBC
:0105140000E6
:10002600E709F608DFFA8046E709F208DFFA803EBC
:1000360088828C83E709F0A3DFFA8032E309F608A9
:10004600DFFA8078E309F208DFFA807088828C8311
:10005600E309F0A3DFFA806489828A83E0A3F608C5
:10006600DFFA805889828A83E0A3F208DFFA804C9F
:1000760080D280FA80C680D4806980F28033801076
:1000860080A680EA809A80A880DA80E280CA8033DF
:1000960089828A83ECFAE493A3C8C582C8CCC58357
:1000A600CCF0A3C8C582C8CCC583CCDFE9DEE78027
:1000B6000D89828A83E493A3F608DFF9ECFAA9F0A6
:1000C600EDFB2289828A83ECFAE0A3C8C582C8CCFC
:1000D600C583CCF0A3C8C582C8CCC583CCDFEADE15
:1000E600E880DB89828A83E493A3F208DFF980CC77
:1000F60088F0EF60010E4E60C388F0ED2402B40470
:100106000050B9F582EB2402B4040050AF23234516
:06011600822390007673C5
:10011C00C2D530F707B2D563F0FF05F030E70CB26B
:10012C00D5F4048463F0FF05F080018430D502F42B
:02013C0004229B
:10013E00BB010CE58229F582E5833AF583E0225076
:10014E0006E92582F8E622BBFE06E92582F8E222C0
:0D015E00E58229F582E5833AF583E49322DA
:10016B00EF8DF0A4A8F0CF8CF0A428CE8DF0A42EA8
:02017B00FE2262
:10017D00C2D5EC30E709B2D5E4C39DFDE49CFCEE9D
:10018D0030E715B2D5E4C39FFFE49EFE1201B3C361
:10019D00E49DFDE49CFC80031201B330D507C3E45C
:0601AD009FFFE49EFE220C
:10033000AC43AD44AE45AF467810EC4D4E4F700423
:100340007CA57DA5C3EC13FCED13FDEE13FEEF13AE
:10035000FF5010EC64CCFCED644CFDEE644EFEEFFF
:1003600064CEFFD8DF8C438D448E458F46EE547F9C
:0D037000FE228E438F4474A5F545F546220C
:1001B300BC000BBE0029EF8DF084FFADF022E4CC30
:1001C300F875F008EF2FFFEE33FEEC33FCEE9DECF9
:1001D300984005FCEE9DFE0FD5F0E9E4CEFD22ED3F
:1001E300F8F5F0EE8420D21CFEADF075F008EF2F89
:1001F300FFED33FD4007985006D5F0F222C398FD7A
:050203000FD5F0EA2216
:00000001FF
