:030000000200C239
:0C00C200787FE4F6D8FD75814B0201093F
:10027C00141400000000000000000000000000004A
:10028C000000000000001428000000000000000026
:10029C00000000000000000000000000083C01020B
:1002AC00040810204080080C7FBFDFEFF7FBFDFE39
:1001F400AF0AEFD39400401B74132FF8E6FE741477
:100204002FF8A60674272FF8E6FE74282FF8A60602
:100214001F80DFE51425442408FF75F0081200034D
:1002240085F014E52825452408FF75F0081200031D
:0302340085F0282A
:0102370022A4
:1002BD00750A01750B01AF3C1202EC850C80120121
:1002CD00A77C007D02120037AF05EF14600A0470A1
:0E02DD000D754401E4F54522E4F54475450134
:0102EB0022F0
:10023800E4FFEF703E1201A77C007D081200378DA5
:10024800081201A77C007D081200378D097F01E4A0
:10025800F54BE54BC3950A50D97414254BF8E6B510
:10026800080D7428254BF8E6B50904E4FF80C3059A
:030278004B80DFD9
:01027B002260
:06014E001202BD1202388E
:10015400E4F54AE54AC3950A501E7414254AF8E6A4
:10016400243CF8E6FF1202EC7428254AF8E6240C35
:10017400F8E6F580054A80DB743C2508F8E6FF12B2
:1001840002EC740C2509F8E6F5801201F4C3740A34
:10019400950BFFE49400FE7C007D141200251203ED
:0101A4001545
:0201A50080AD2B
:040335007F017E00C6
:0B033900EF1FAC0670011E4C70F62296
:10031500E4FDFCC3ED9FEC9E5015E4FBFA0BBB001E
:0F032500010AEB646E4A70F50DBD00010C80E417
:0103340022A6
:0202EC00AD075C
:1002EE00E4FBEDC4131313540124FF92B4ED25E087
:1002FE00FDC2B6120335D2B61203350BBB08E3C2EC
:06030E00B5120335D2B563
:0103140022C6
:1000CE0002014EE493A3F8E493A34003F68001F2F9
:1000DE0008DFF48029E493A3F85407240CC8C33333
:1000EE00C4540F4420C8834004F456800146F6DF02
:1000FE00E4800B010204081020408090027CE47E14
:10010E00019360BCA3FF543F30E509541FFEE493F6
:10011E00A360010ECF54C025E060A840B8E493A3BD
:10012E00FAE493A3F8E493A3C8C582C8CAC583CAE8
:10013E00F0A3C8C582C8CAC583CADFE9DEE780BEA0
:0102BC000041
:10000300C2D530F707B2D563F0FF05F030E70CB285
:10001300D5F4048463F0FF05F080018430D502F445
:020023000422B5
:10002500EF8DF0A4A8F0CF8CF0A428CE8DF0A42EEF
:02003500FE22A9
:10003700C2D5EC30E709B2D5E4C39DFDE49CFCEEE4
:1000470030E715B2D5E4C39FFFE49EFE12006DC3EF
:10005700E49DFDE49CFC800312006D30D507C3E4EA
:060067009FFFE49EFE2253
:1001A700AC46AD47AE48AF497810EC4D4E4F7004A2
:1001B7007CA57DA5C3EC13FCED13FDEE13FEEF1339
:1001C700FF5010EC64CCFCED644CFDEE644EFEEF8A
:1001D70064CEFFD8DF8C468D478E488F49EE547F1B
:0D01E700FE228E468F4774A5F548F549228B
:10006D00BC000BBE0029EF8DF084FFADF022E4CC77
:10007D00F875F008EF2FFFEE33FEEC33FCEE9DEC40
:10008D00984005FCEE9DFE0FD5F0E9E4CEFD22ED86
:10009D00F8F5F0EE8420D21CFEADF075F008EF2FD0
:1000AD00FFED33FD4007985006D5F0F222C398FDC1
:0500BD000FD5F0EA225E
:00000001FF
