:030000000200E516
:0C00E500787FE4F6D8FD75815002012CF4
:1002B500141700000000000000000000000000000E
:1002C500000000000000142B0000000000000000EA
:1002D500000000000000000000000000083F0102CF
:1002E500040810204080080E7FBFDFEFF7FBFDFEFE
:10022D00AF0AEFD39400401B74162FF8E6FE741737
:10023D002FF8A606742A2FF8E6FE742B2FF8A606C3
:10024D001F80DFE51725472408FF75F008120026EB
:10025D0085F017E52B25482408FF75F008120026B8
:03026D0085F02BEE
:01027000226B
:10037400750A01750B01750C01AF3F1202F6AF0E41
:100384001204381201E07C007D0212005AAF05EF1E
:1003940014600A04700D754701E4F54822E4F5473A
:0303A40075480198
:0103A7002233
:10027100E4FFEF703E1201E07C007D0812005A8D10
:10028100081201E07C007D0812005A8D097F01E40B
:10029100F54DE54DC3950A50D97417254DF8E6B5CE
:1002A100080D742B254DF8E6B50904E4FF80C3055C
:0302B1004D80DF9E
:0102B4002227
:10033600E4F54DE54DC3950A50207417254DF8E6B2
:10034600243FF8E6FF1202F6742B254DF8E6240E3C
:10035600F8E6FF120438054D80D9743F2508F8E603
:0E036600FF1202F6740E2509F8E6FF020438B5
:1003A8007F01EFC3950A501674172FF8E6B5170B9F
:1003B800742B2FF8E6B52B03E4F50C0F80E4E50861
:0D03C800B5170AE509B52B05050A120271EB
:0103D5002205
:100171001203747FFA7E00120419120271E50C60F9
:100181005712033612022D1203361203A812033638
:10019100C3740B950BFFE49400FE7C007D321200CA
:1001A10048120003859916E516B40408E4F547756D
:1001B100480180C9E516B40308E4F5477548FF8096
:1001C100BCE516B402057547FF8008E516B401AD1C
:0F01D100754701E4F54880A5E50A14F50D809EF9
:0202F6008F4E29
:1002F800E4F54FF54FE54EC4131313540124FF9250
:10030800B4E54E25E0F54EC2B67F017E0012042DFD
:10031800D2B67F017E0012042D054FE54FC3940825
:0D03280040D3C2B57F017E0012042DD2B576
:0103350022A5
:030438008F802290
:0B042D00EF1FAC0670011E4C70F622A1
:10000300E4FDFCC3ED9FEC9E5015E4FBFA0BBB0033
:0F001300010AEB646E4A70F50DBD00010C80E42C
:0100220022BB
:100419004389207598507587808F8D8F8BD2ACD288
:04042900AFD28E229E
:03002300020402D2
:07040200C0D075D000C00757
:0B040900C298AF998F993099FDC299FD
:05041400D007D0D0323A
:1003D6008F5020B2127F0A7E0012000320B21C75D5
:1003E6005001C2A2D2A32220B3117F0A7E001200BE
:0C03F6000320B307E4F550D2A2C2A322FA
:1000F100020171E493A3F8E493A34003F68001F2B3
:1001010008DFF48029E493A3F85407240CC8C3330F
:10011100C4540F4420C8834004F456800146F6DFDE
:10012100E4800B01020408102040809002B5E47EB7
:10013100019360BCA3FF543F30E509541FFEE493D3
:10014100A360010ECF54C025E060A840B8E493A39A
:10015100FAE493A3F8E493A3C8C582C8CAC583CAC5
:10016100F0A3C8C582C8CAC583CADFE9DEE780BE7D
:0102F5000008
:10002600C2D530F707B2D563F0FF05F030E70CB262
:10003600D5F4048463F0FF05F080018430D502F422
:02004600042292
:10004800EF8DF0A4A8F0CF8CF0A428CE8DF0A42ECC
:02005800FE2286
:10005A00C2D5EC30E709B2D5E4C39DFDE49CFCEEC1
:10006A0030E715B2D5E4C39FFFE49EFE120090C3A9
:10007A00E49DFDE49CFC800312009030D507C3E4A4
:06008A009FFFE49EFE2230
:1001E000AC49AD4AAE4BAF4C7810EC4D4E4F70045D
:1001F0007CA57DA5C3EC13FCED13FDEE13FEEF1300
:10020000FF5010EC64CCFCED644CFDEE644EFEEF50
:1002100064CEFFD8DF8C498D4A8E4B8F4CEE547FD5
:0D022000FE228E498F4A74A5F54BF54C2245
:10009000BC000BBE0029EF8DF084FFADF022E4CC54
:1000A000F875F008EF2FFFEE33FEEC33FCEE9DEC1D
:1000B000984005FCEE9DFE0FD5F0E9E4CEFD22ED63
:1000C000F8F5F0EE8420D21CFEADF075F008EF2FAD
:1000D000FFED33FD4007985006D5F0F222C398FD9E
:0500E0000FD5F0EA223B
:00000001FF
