:03000000020112E8
:0C011200787FE4F6D8FD75815E0201598B
:1002F40014170000000000000000000000000000CF
:10030400000000000000142B0000000000000000AA
:10031400000000000000000000000000083F01028F
:10032400040810204080080E7FBFDFEFF7FBFDFEBE
:10026C00AF0AEFD39400401B74162FF8E6FE7417F8
:10027C002FF8A606742A2FF8E6FE742B2FF8A60684
:10028C001F80DFE51725472408FF75F008120026AC
:10029C0085F017E52B25482408FF75F00812002679
:0302AC0085F02BAF
:0102AF00222C
:1003F000750A01750B01750C01AF3F120335AF0E85
:1004000012056D12021F7C007D021200DCAF05EFA9
:1004100014600A04700D754701E4F54822E4F547BD
:030420007548011B
:0104230022B6
:1002B000E4FFEF703E12021F7C007D081200DC8D0F
:1002C0000812021F7C007D081200DC8D097F01E40A
:1002D000F559E559C3950A50D974172559F8E6B56B
:1002E000080D742B2559F8E6B50904E4FF80C30511
:0302F0005980DF53
:0102F30022E8
:10037500E4F559E559C3950A502074172559F8E64F
:10038500243FF8E6FF120335742B2559F8E6240EB1
:10039500F8E6FF12056D055980D9743F2508F8E682
:0E03A500FF120335740E2509F8E6FF02056D00
:100424007F01EFC3950A501674172FF8E6B5170B22
:10043400742B2FF8E6B52B03E4F50C0F80E4E508E4
:0D044400B5170AE509B52B05050A1202B02F
:010451002288
:10019E00E4F5581203F07FFA7E0012051F1202B02A
:1001AE00E50C606812037512026C120375120424BA
:1001BE00120375C3740B950BFFE49400FE7C007D57
:1001CE0032120075120003859916E516B40408E480
:1001DE00F5477548018022E516B40308E4F5477526
:1001EE0048FF8015E516B402057547FF8008E51631
:1001FE00B40106754701E4F548E50A14F50D655896
:10020E0060057F99120565850D588094750A0180E9
:01021E008F50
:020335008F5ADD
:10033700E4F55BF55BE55AC4131313540124FF92EC
:10034700B4E55A25E0F55AC2B67F017E001205468C
:10035700D2B67F017E00120546055BE55BC39408B4
:0D03670040D3C2B57F017E00120546D2B51D
:010374002266
:03056D008F80225A
:0B054600EF1FAC0670011E4C70F62287
:10000300E4FDFCC3ED9FEC9E5015E4FBFA0BBB0033
:0F001300010AEB646E4A70F50DBD00010C80E42C
:0100220022BB
:10051F004389207598507587808F8D8F8BD2ACD281
:04052F00AFD28E2297
:030023000204F1E3
:0704F100C0D075D000C00768
:0B04F800C298AF998F993099FDC2990E
:05050300D007D0D0324A
:080565008F993099FDC2992223
:100452008F5C20B2127F0A7E0012000320B21C754C
:100462005C01C2A2D2A32220B3117F0A7E00120035
:0C0472000320B307E4F55CD2A2C2A32271
:09055100007F027EC7DEFEDFFC24
:01055A00227E
:1004C100C2A5C2A68F80D2A77F017E00120003C2FF
:0804D100A77F017E0002000379
:1004D900D2A5C2A68F80D2A77F017E00120003C2D7
:0804E900A77F017E0002000361
:100508007F381204C17F0C1204C17F061204C17F18
:07051800011204C1C2902290
:100533008D5DE55DBF0103148002243F4480FF12FB
:0305430004C122CE
:0A055B008B5E120533AF5E0204D977
:06047E008B508A518952E7
:10048400E4F553120533E4F553AB50AA51A9528550
:100494005382758300120048FF60071204D9055384
:0204A40080E7EF
:0104A6002233
:0404A700AB05A907F1
:1004AB007F017E00E4FAEAC39B500AE9FD7C00124F
:0504BB0000750A80F14C
:0104C0002219
:0403B3008A4B8B4C9A
:1003B700E4F54F120533854E4FE54FD3940040289F
:1003C700E54F14FD7F0A1204A7AC4BAD4CCFCDCF40
:1003D700CECCCE1200877C007D0A120087ED243038
:0803E700FF1204D9154F80D16B
:0103EF0022EB
:10011E0002019EE493A3F8E493A34003F68001F258
:10012E0008DFF48029E493A3F85407240CC8C333E2
:10013E00C4540F4420C8834004F456800146F6DFB1
:10014E00E4800B01020408102040809002F4E47E4B
:10015E00019360BCA3FF543F30E509541FFEE493A6
:10016E00A360010ECF54C025E060A840B8E493A36D
:10017E00FAE493A3F8E493A3C8C582C8CAC583CA98
:10018E00F0A3C8C582C8CAC583CADFE9DEE780BE50
:0103340000C8
:10002600C2D530F707B2D563F0FF05F030E70CB262
:10003600D5F4048463F0FF05F080018430D502F422
:02004600042292
:10004800BB010CE58229F582E5833AF583E022506D
:1000580006E92582F8E622BBFE06E92582F8E222B7
:0D006800E58229F582E5833AF583E49322D1
:10007500EF8DF0A4A8F0CF8CF0A428CE8DF0A42E9F
:02008500FE2259
:10008700BC000BBE0029EF8DF084FFADF022E4CC5D
:10009700F875F008EF2FFFEE33FEEC33FCEE9DEC26
:1000A700984005FCEE9DFE0FD5F0E9E4CEFD22ED6C
:1000B700F8F5F0EE8420D21CFEADF075F008EF2FB6
:1000C700FFED33FD4007985006D5F0F222C398FDA7
:0500D7000FD5F0EA2244
:1000DC00C2D5EC30E709B2D5E4C39DFDE49CFCEE3F
:1000EC0030E715B2D5E4C39FFFE49EFE120087C330
:1000FC00E49DFDE49CFC800312008730D507C3E42B
:06010C009FFFE49EFE22AD
:10021F00AC54AD55AE56AF577810EC4D4E4F7004F1
:10022F007CA57DA5C3EC13FCED13FDEE13FEEF13C0
:10023F00FF5010EC64CCFCED644CFDEE644EFEEF11
:10024F0064CEFFD8DF8C548D558E568F57EE547F6A
:0D025F00FE228E548F5574A5F556F55722DA
:00000001FF
